:020000040800F2
:10000000F809002089010008492500083323000869
:10001000452500089D030008A92A000800000000EB
:10002000000000000000000000000000792500082A
:10003000A1030008000000004D2500087B250008F2
:10004000A3010008A3010008A3010008A301000800
:10005000A3010008A3010008A3010008A3010008F0
:10006000A3010008A3010008A3010008A3010008E0
:10007000A3010008A3010008A3010008A3010008D0
:10008000A3010008A3010008A3010008A3010008C0
:10009000A3010008A3010008A3010008A3010008B0
:1000A000A3010008A3010008A3010008A3010008A0
:1000B00009260008A3010008A3010008A301000805
:1000C000A3010008A3010008A3010008A301000880
:1000D000A3010008992A0008A3010008A301000851
:1000E000A3010008A3010008A301000800F002F822
:1000F00000F03AF80AA090E8000C82448344AAF188
:100100000107DA4501D100F02FF8AFF2090EBAE885
:100110000F0013F0010F18BFFB1A43F0010318473B
:10012000503C0000703C0000103A24BF78C878C1F1
:10013000FAD8520724BF30C830C144BF04680C60ED
:10014000704700000023002400250026103A28BF35
:1001500078C1FBD8520728BF30C148BF0B60704739
:100160001FB51FBD10B510BD00F06CF81146FFF7AC
:10017000F7FF02F041FD00F08AF803B4FFF7F2FF49
:1001800003BC00F08DF8000009488047094800478B
:10019000FEE7FEE7FEE7FEE7FEE7FEE7FEE7FEE737
:1001A000FEE7FEE704480549054A064B7047000094
:1001B00007260008ED000008F8030020F8090020D9
:1001C000F8050020F80500204FF0000200B51346A6
:1001D00094469646203922BFA0E80C50A0E80C5067
:1001E000B1F12001BFF4F7AF090728BFA0E80C5018
:1001F00048BF0CC05DF804EB890028BF40F8042B11
:1002000008BF704748BF20F8022B11F0804F18BF7D
:1002100000F8012B704770477047704710B500F029
:1002200009F8006810BD10B5044600F003F804603A
:1002300010BD000000487047980300200048704738
:10024000980300207546FFF7F9FFAE4605006946A2
:10025000534620F00700854618B020B5FFF7A2FFEF
:10026000BDE820404FF000064FF000074FF00008B7
:100270004FF0000B21F00701AC46ACE8C009ACE838
:10028000C009ACE8C009ACE8C0098D46704710B59C
:100290000446AFF300802046BDE81040FFF76DBF75
:1002A00001491820ABBEFEE726000200704770B57A
:1002B000044600252068806800F0010018B320681B
:1002C000806820F001002168886000F015FE054676
:1002D00013E000F011FE401B02280ED92068806850
:1002E00000F0010048B1A06A40F01000A062E06A8E
:1002F00040F00100E062012070BD2068806800F0DD
:1003000001000028E5D10020F6E7000038B50446DA
:100310000025002000902068806800F0010078BB74
:100320002068806840F001002168886019480068F2
:100330001949B0FBF1F0009002E00098401E0090D7
:1003400000980028F9D100F0D7FD054619E000F02B
:10035000D3FD401B022814D92068806800F00100FA
:1003600078B9A06A40F01000A062E06A40F0010095
:10037000E06200BF002084F8240000BF012038BDE7
:1003800005E02068806800F001000028DFD0002030
:10039000F5E700005400002040420F0000BFFEE7D8
:1003A000704772B600BFFEE706480068064908605D
:1003B0000448001D006848600248083000688860F2
:1003C00070470000E8F7FF1FA0000020F8B50446C2
:1003D00000260020009000BF94F82400012801D1DD
:1003E0000220F8BD012084F8240000BF2046FFF75A
:1003F0005EFF06462046FFF789FF0646002E69D1BC
:10040000A06A20F4885040F00200A062022000F0B0
:100410004BFE34490968B1FBF0F04000009002E067
:100420000098401E009000980028F9D1206880684C
:1004300040F008002168886000F05EFD054616E087
:1004400000F05AFD401B0A2811D92068806800F08E
:10045000080060B1A06A20F0020040F01000A06225
:1004600000BF002084F8240000BF0120B9E7206805
:10047000806800F008000028E2D12068806840F021
:1004800004002168886000F037FD054616E000F0A2
:1004900033FD401B0A2811D92068806800F0040051
:1004A00060B1A06A20F0020040F01000A06200BF1E
:1004B000002084F8240000BF012092E720688068B3
:1004C00000F004000028E2D1A06A20F0020040F011
:1004D0000100A06200BF002084F8240000BF304665
:1004E0007FE700005400002038B5024600230020BA
:1004F000009000BF92F82400012801D1022038BDED
:10050000012082F8240000BF4868072812D2106832
:10051000406B0C79641E04EB84051F24AC40A0439F
:100520000D796D1E05EB85050C68AC402043146801
:10053000606327E048680D2812D21068006B0C79C0
:10054000E41F04EB84051F24AC40A0430D79ED1F8C
:1005500005EB85050C68AC4020431468206311E06E
:100560001068C06A0C790D3C04EB84051F24AC4074
:10057000A0430D790D3D05EB85050C68AC4020438B
:100580001468E06208680A2812D31068C0680C7802
:100590000A3C04EB44050724AC40A0430D780A3D17
:1005A00005EB45058C68AC4020431468E0600FE023
:1005B000106800690C7804EB44050724AC40A043A4
:1005C0000D7805EB45058C68AC402043146820612C
:1005D0000868102802D00868112827D1174C106825
:1005E000A0421ED11068806800F40000F0B91068C5
:1005F000806840F400001468A0600868102815D1D5
:100600000F4800680F4CB0FBF4F000EB8000400096
:10061000009002E00098401E009000980028F9D158
:1006200004E0906A40F020009062012300BF0020A7
:1006300082F8240000BF184661E700000024014052
:100640005400002040420F0001460868C06C70470B
:100650002DE9F0410446002700250026A84614B9DC
:100660000120BDE8F081A06810B1207D00B100BF7D
:10067000A06A30B90020E06284F82400204600F02F
:1006800089F82046FFF713FE0746A06A00F0100025
:10069000002873D1002F71D1A06A20F4885040F057
:1006A0000200A062E16960680843217B40EA4100E2
:1006B0000643A068B0F5807F02D0A068012802D16F
:1006C0004FF4807000E000200543207D012811D107
:1006D000207B38B9A069401E4FF4006141EA4030E8
:1006E000054307E0A06A40F02000A062E06A40F005
:1006F0000100E0622068406820F4694028432168D6
:10070000486020688068214908403043216888603B
:10071000A068B0F5807F02D0A068012802D14FF414
:10072000807000E00020B0F5807F03D1208A401E59
:100730004FEA00582068C06A20F4700040EA0800C0
:100740002168C8622068806811490840B04208D119
:100750000020E062A06A20F0020040F00100A062E8
:1007600011E0A06A20F0020040F01000A062E06AF0
:1007700040F00100E062012705E0FFE7A06A40F0D9
:100780001000A062012738466BE70000FDF7E1FF8B
:10079000FE0E1FFF10B586B00446002002900390A5
:1007A0000490059014492068884222D100BF134864
:1007B000806940F40070114988610846806900F43E
:1007C0000070019000BF00BF00BF0846806940F084
:1007D000040088610846806900F00400019000BFB1
:1007E00000BF782002900320039002A9044800F083
:1007F000E5F906B010BD00000024014000100240E1
:1008000000080140F8B504460D460026002000907F
:10081000002700F071FB06462068806800F48070B5
:1008200050B1A06A40F02000A06200BF002084F810
:10083000240000BF0120F8BD2068406800F48070EB
:1008400020BB2068C06A00F47000F8B917E0681C8B
:10085000A8B125B100F050FB801BA8420FD9206839
:10086000006800F0020050B9A06A40F00400A062E5
:1008700000BF002084F8240000BF0320DBE72068CD
:10088000006800F002000028E1D053E0022000F0F0
:100890000BFC38490968B1FBF0F021680969364A58
:1008A000114091B92168C9689211114069B9216854
:1008B0000969324A114031B92168C9689211114061
:1008C00009B9142117E0292115E0216809692B4A8B
:1008D000114021B92168C9689211114041B12168C4
:1008E0000969274A114029B92168C968114009B925
:1008F000542100E0FC2100FB01F718E0681C98B1CE
:1009000025B100F0F9FA801BA8420DD90098B84231
:100910000AD2A06A40F00400A06200BF002084F860
:10092000240000BF032086E70098401C0090009838
:10093000B842E3D36FF0120021680860A06A40F467
:100940000070A0622068806800F46020B0F5602F1D
:100950000DD1207B58B9A06A20F48070A062A06AF3
:1009600000F4805018B9A06A40F00100A062002095
:1009700061E7000054000020244992249224491287
:100980004992240070B50446002500BF94F8240065
:10099000012801D1022070BD012084F8240000BF8D
:1009A0002046FFF7B3FC0546002D77D1A06A40F240
:1009B0000121884340F48070A0623C49206888424D
:1009C00008D13B48006800F4702008B9012002E01B
:1009D000002000E0012078B1A06A20F48010A0621D
:1009E0002068406800F4806000B3A06A20F40050E2
:1009F00040F48050A06219E0A06A40F48010A06228
:100A00002B49091F2068884203D028492068884262
:100A100004D12748006800F4806000E0002028B17D
:100A2000A06A20F4005040F48050A062A06A00F454
:100A3000805020B1E06A20F00600E06201E0002072
:100A4000E06200BF002084F8240000BFC01E2168BF
:100A500008602068806800F46020B0F5602F16D12F
:100A600012492068884208D11148006800F47020BB
:100A700008B9012002E0002000E0012038B1206820
:100A8000806840F4A000216888600CE006E02068DF
:100A9000806840F480102168886004E000BF002076
:100AA00084F8240000BF284675E7000000280140B4
:100AB000042401400146002291F82100022808D0B8
:100AC0000420886300BF002081F8200000BF0120BF
:100AD00070470868006820F00E000B68186008680E
:100AE000006820F001000B68186091F84030012088
:100AF0009840CB6B5860012081F8210000BF002096
:100B000081F8200000BF1046E2E7000070B50446FF
:100B1000002594F82100022803D00420A0630125B9
:100B200048E02068006820F00E0021680860206816
:100B3000006820F00100216808601F492068884291
:100B400001D1012026E01C4914312068884201D1DE
:100B500010201FE0184928312068884201D18015F3
:100B600018E015493C312068884201D1801411E019
:100B7000114950312068884202D14FF4803009E099
:100B80000D4964312068884202D14FF4801001E0A1
:100B90004FF08070084908394860012084F821002E
:100BA00000BF002084F8200000BF606B10B1204619
:100BB000616B8847284670BD080002402DE9F84760
:100BC0000346002294466EE14FF0010808FA02F451
:100BD000D1F8008008EA0400A0427DD1DFF8DCA251
:100BE000D1F80480A8EB0A09D0453AD014DCB8F15A
:100BF000030F50D009DCB8F1000F31D0B8F1010F6C
:100C00001CD0B8F1020F49D120E0B8F1110F18D073
:100C1000B8F1120F42D11EE0B9F5881F25D006DCCD
:100C2000B9F5803F20D0B9F5801F37D11AE0B9F56A
:100C3000001F18D0B9F5041F30D117E0D1F80CC04F
:100C40002DE0D1F80C8008F1040C28E0D1F80C80DC
:100C500008F1080C23E0D1F80C8008F10C0C1EE020
:100C600000BF00BF00BF00BF00BF00BFD1F80880B9
:100C7000B8F1000F02D14FF0040C0BE0D1F808805E
:100C8000B8F1010F03D14FF0080C1C6102E04FF0E6
:100C9000080C5C6103E04FF0000C00E000BF00BFF7
:100CA000FF2801D8984601E003F104084646FF28D2
:100CB00002D84FEA820803E0A2F108084FEA880848
:100CC0004746D6F800804FF00F0909FA07F928EADD
:100CD00009080CFA07F900E088E048EA0908C6F8B4
:100CE0000080D1F8048008F08058B8F1805F7DD191
:100CF00000BFDFF8CC81D8F8188048F00108DFF891
:100D0000C091C9F81880C846D8F8188008F00108C2
:100D1000CDF8008000BF00BF4FEAB9384FEA920912
:100D200058F829504FEA82784FEA18794FF00F08A7
:100D300008FA09F825EA0805DFF88881434502D159
:100D40004FF0000816E0DFF88081434502D14FF0F4
:100D500001080FE0DFF87481434502D14FF002082B
:100D600008E0DFF86C81434502D14FF0030801E051
:100D70004FF004084FEA82794FEA197908FA09F826
:100D800048EA0505DFF84C814FEA920948F82950F6
:100D9000D1F8048008F48018B8F5801F0AD1DFF874
:100DA0003881D8F8008048EA0008DFF82C91C9F8AB
:100DB000008009E0DFF82081D8F8008028EA0008E8
:100DC000DFF81491C9F80080D1F8048008F4001805
:100DD000B8F5001F10D1DFF8008108F10408D8F839
:100DE000008048EA0008DFF8F09000E05AE009F1DE
:100DF0000409C9F800800DE0DFF8DC8008F1040880
:100E0000D8F8008028EA0008DFF8CC9009F104093E
:100E1000C9F80080D1F8048008F40038B8F5003F24
:100E20000ED1DFF8B480A8F10408D8F8008048EAB1
:100E30000008DFF8A490A9F10409C9F800800DE0CA
:100E4000DFF89480A8F10408D8F8008028EA0008A8
:100E5000DFF88490A9F10409C9F80080D1F8048072
:100E600008F48038B8F5803F0ED1DFF86C80A8F127
:100E70000808D8F8008048EA0008DFF85C90A9F17B
:100E80000809C9F800800DE0DFF84C80A8F10808D7
:100E9000D8F8008028EA0008DFF83C90A9F108099A
:100EA000C9F80080521CD1F8008028FA02F8B8F185
:100EB000000F7FF489AEBDE8F88700000000111034
:100EC0000010024000080140000C014000100140E9
:100ED00000140140080001400804014002469368E4
:100EE0000B400BB1012000E0002070470AB1016106
:100EF00001E00B040361704701480068704700007F
:100F00004800002003480068034909780844014963
:100F100008607047480000205000002010B50848C5
:100F2000006840F0100006490860032000F0A8F8AF
:100F30000F2000F007F800F02BF8002010BD000093
:100F40000020024070B504460E4800784FF47A71D4
:100F5000B1FBF0F00C490968B1FBF0F5284600F050
:100F60000FFD08B1012070BD102C07D200222146D0
:100F7000501E00F047F80548046001E00120F2E748
:100F80000020F0E750000020540000204C0000201A
:100F900008B500BF1148806940F001000F49886121
:100FA0000846806900F00100009000BF00BF00BF4C
:100FB0000846C06940F08050C8610846C06900F02A
:100FC0008050009000BF00BF00BF0549486820F076
:100FD000E06040F00070486000BF08BD00100240B3
:100FE0000000014001460846002809DB00F01F030D
:100FF00001229A4043099B0003F1E023C3F800213A
:1010000000BF70472DE9F05F80460D461646002769
:1010100001F04CFD074639462A46334601F00700E9
:10102000C0F1070ABAF1040F02D94FF0040A01E037
:10103000C0F1070AD14600F1040ABAF1070F02D243
:101040004FF0000A01E0A0F1030AD4464FF0010A74
:101050000AFA09FAAAF1010A0AEA020A0AFA0CFAD9
:101060004FF0010B0BFA0CFBABF1010B0BEA030B7E
:101070004AEA0B042146404601F020FDBDE8F09FFE
:1010800000BF00F00702064B19684FF6FF03194036
:10109000044B0B4343EA0221014B196000BF704728
:1010A0000CED00E00000FA052DE9F04706464FF090
:1010B0000008002500270024A146012E31D0022E71
:1010C00056D0102E5FD132484468006800F080701E
:1010D00008B33048C4F38341475C04F4803078B1EE
:1010E0002B484068C0F340402B4911F8008004F4BD
:1010F000803040B12948B0FBF8F000FB07F502E072
:10110000274807FB00F52248406800F48000B0F54E
:10111000800F01D1A94603E068000321B0FBF1F97B
:1011200032E01B48046A04F44070B0F5807F05D1BA
:1011300004F0020010B14FF4004918E004F44070CC
:10114000B0F5007F07D11248406A00F0020010B1EC
:1011500049F640490BE004F44070B0F5407F06D1F9
:101160000B48006800F4003008B14FF224490BE04E
:1011700000F08CF906494968C1F38131491C4900E6
:10118000B0FBF1F900E000BF00BF4846BDE8F087C2
:1011900000100240FE3C00080E3D000800127A00DC
:1011A00000093D00F8B5044600260025207800F02F
:1011B000010000286BD000274348C06900F0805030
:1011C00070B900BF4048C06940F080503E49C861D6
:1011D0000846C06900F08050009000BF00BF0127A2
:1011E0003A48006800F48070B0B93848006840F4AC
:1011F000807036490860FFF77FFE064606E0FFF77D
:101200007BFE801B642801D90320F8BD2F480068AD
:1012100000F480700028F2D02B48006A00F440757A
:101220002DB3A08800F44070A84220D02648006A60
:1012300020F44075012026490860002008602248FB
:10124000056205F0010090B1FFF756FE064608E082
:10125000FFF752FE801B41F28831884201D90320FA
:10126000D3E71948006A00F002000028F0D01648C1
:10127000006A20F440706168084313490862012F36
:1012800004D10846C06920F08050C86100BF2078B2
:1012900000F00200022807D10B48406820F44040CB
:1012A000A168084308494860207800F01000102821
:1012B00007D10548406820F48000E16808430249EE
:1012C00048600020A1E700000010024000700040CC
:1012D0004004424270B504460D460CB9012070BD71
:1012E0005A48006800F00700A8420ED2574800682C
:1012F00020F007002843554908600846006800F0C0
:101300000700A84201D00120E9E7207800F00200A0
:1013100002281DD1207800F00400042805D14C4893
:10132000406840F4E0604A494860207800F00800D6
:10133000082805D14648406840F460504449486058
:101340004348406820F0F000A168084340494860E5
:10135000207800F0010078B36068012806D13C488D
:10136000006800F4003090B90120B8E760680228F6
:1013700006D13748006800F0007040B90120AEE7A0
:101380003348006800F0020008B90120A7E73048A0
:10139000406820F00300616808432D494860FFF76A
:1013A000ABFD064609E0FFF7A7FD801B41F288313F
:1013B000884202D9032092E707E02548406800F000
:1013C0000C006168B0EB810FEDD12048006800F09F
:1013D0000700A8420ED91D48006820F007002843E6
:1013E0001A4908600846006800F00700A84201D0CA
:1013F000012074E7207800F00400042807D1144885
:10140000406820F4E060E1680843114948602078B2
:1014100000F00800082808D10D48406820F460500A
:10142000216940EAC1000A49486000F03FF80849D4
:101430004968C1F30311074A515CC8400649086076
:1014400006480068FFF77EFD002048E700200240C4
:1014500000100240103D0008540000204C00002005
:1014600001480068704700005400002000B5FFF7F5
:10147000F7FF04494968C1F30221034A515CC8409F
:1014800000BD000000100240203D000800B5FFF73D
:10149000E7FF04494968C1F3C221034A515CC840CF
:1014A00000BD000000100240203D000870B5002182
:1014B0000022002400230020134D696801F00C0570
:1014C000F5B1042D02D0082D19D101E00F4819E023
:1014D0000F4DC1F38346AB5D01F4803555B10A4D24
:1014E0006D68C5F340450B4E725D084D5D43B5FB1D
:1014F000F2F402E0084D03FB05F4204602E000BFD1
:10150000024800BF00BF70BD0010024000127A0008
:10151000EC3C0008FC3C000800093D00F8B504461E
:101520000CB90120F8BD207800F00100002878D027
:10153000F848406800F00C0004280CD0F5484068DA
:1015400000F00C00082811D1F248406800F4803007
:10155000B0F5803F0AD1EF48006800F40030002861
:101560005FD0606800285CD10120DBE700BF6068C5
:10157000B0F5803F06D1E748006840F48030E54987
:10158000086028E0606858B9E248006820F48030BC
:10159000E04908600846006820F4802008601AE0EE
:1015A0006068B0F5A02F0BD1DA48006840F48020C5
:1015B000D84908600846006840F4803008600AE0B6
:1015C000D448006820F48030D2490860084600689A
:1015D00020F48020086000BF606888B1FFF78CFCB1
:1015E000054606E0FFF788FC401B642801D903206C
:1015F00098E7C848006800F400300028F2D010E0F6
:10160000FFF77AFC054606E0FFF776FC401B6428EE
:1016100001D9032086E7BF48006800F400300028A5
:10162000F2D1207800F00200022857D1B948406872
:1016300000F00C0050B1B748406800F00C000828DA
:1016400018D1B448406800F4803098B9B1480068B7
:1016500000F0020020B12069012801D0012061E7DB
:10166000AC48006820F0F800616940EAC100A9496F
:10167000086033E02069E8B10120A7490860FFF75E
:101680003BFC054606E0FFF737FC401B022801D96A
:10169000032047E79F48006800F002000028F2D0CE
:1016A0009C48006820F0F800616940EAC10099494F
:1016B000086013E0002098490860FFF71DFC05460C
:1016C00006E0FFF719FC401B022801D9032029E797
:1016D0009048006800F002000028F2D1207800F065
:1016E000080008282DD1A069B8B101208B490860F5
:1016F000FFF702FC054606E0FFF7FEFB401B022851
:1017000001D903200EE78348406A00F00200002858
:10171000F2D0012000F01CFF13E000207F49086098
:10172000FFF7EAFB054606E0FFF7E6FB401B022851
:1017300001D90320F6E67748406A00F0020000284D
:10174000F2D1207800F00400042873D100277148FA
:10175000C06900F0805070B900BF6E48C06940F0A9
:1017600080506C49C8610846C06900F08050009004
:1017700000BF00BF01276A48006800F48070B0B95C
:101780006748006840F4807065490860FFF7B4FB63
:10179000054606E0FFF7B0FB401B642801D9032093
:1017A000C0E65F48006800F480700028F2D000BFF7
:1017B000E068012806D15748006A40F00100554909
:1017C000086227E0E06858B95248006A20F001003A
:1017D000504908620846006A20F00400086219E0D7
:1017E000E06805280BD14B48006A40F004004949E5
:1017F00008620846006A40F0010008620AE04548B5
:10180000006A20F00100434908620846006A20F09F
:101810000400086200BFE068A0B1FFF76DFB054659
:1018200009E0FFF769FB401B41F28831884202D989
:10183000032077E622E03748006A00F00200002823
:10184000EFD012E0FFF758FB054608E0FFF754FB26
:10185000401B41F28831884201D9032062E62D48BD
:10186000006A00F002000028F0D1012F05D12948BC
:10187000C06920F080502749C86100BFE069C8B343
:101880002448406800F00C00082860D0E069022875
:1018900048D1002020490866FFF72EFB054606E0E8
:1018A000FFF72AFB401B022801D903203AE619481A
:1018B000006800F000700028F2D1206AB0F5803F87
:1018C00007D11448406820F40030A168084311494A
:1018D0004860D4E9080108430E49496821F47411AD
:1018E00008430C49486001200B490866FFF704FBD8
:1018F000054607E03DE0FFF7FFFA401B022801D94B
:1019000003200FE60348006800F000700028F2D0C2
:101910002FE00000001002400000424280044242DA
:1019200000700040002014490866FFF7E5FA0546FC
:1019300006E0FFF7E1FA401B022801D90320F1E598
:101940000E48006800F000700028F2D111E0E06954
:10195000012800D1E6E50948466806F48031206A8E
:10196000814204D106F47011606A814201D00120E5
:10197000D8E50020D6E500000000424200100240F9
:1019800070B504462546681EB0F1807F01D3012062
:101990000FE0681E4FF0E02148610F214FF0FF304B
:1019A00001F08CF800204FF0E021886107200861E9
:1019B000002070BD7047704730B502460B4600BF2F
:1019C00092F83C00012801D1022030BD012082F8AC
:1019D0003C0000BF022082F83D0010684468106897
:1019E000816824F070041868044310684460104D46
:1019F0001068A8420BD01068B0F1804F07D00D4D91
:101A00001068A84203D00C4D1068A84205D121F0FF
:101A100080015868014310688160012082F83D0010
:101A200000BF002082F83C0000BF00BFCDE70000EF
:101A3000002C0140000400400008004010B504469E
:101A40000CB9012010BD94F83D0028B9002084F89D
:101A50003C00204600F026F8022084F83D00211DBD
:101A6000206800F0D9FD012084F8460000BF84F80A
:101A70003E0001213F2001554020015541200155E4
:101A800000BF00BF012084F84200432001554420DC
:101A900001554520015500BF012084F83D0000207C
:101AA000D0E7000038B504462068B0F1804F15D16A
:101AB00000BF0B48C06940F001000949C8610846F1
:101AC000C06900F00100009000BF00BF0022114675
:101AD0001C20FFF797FA1C20FFF784FA38BD00009E
:101AE00000100240014691F83D00012801D001207C
:101AF0007047022081F83D000868C06840F001008E
:101B00000B68D860124B086898420BD00868B0F197
:101B1000804F07D00F4B0868984203D00E4B0868DF
:101B200098420CD10868806800F00702062A0CD0A1
:101B30000868006840F001000B68186005E008685C
:101B4000006840F001000B6818600020D0E700003A
:101B5000002C014000040040000800402DE9F04145
:101B600004460D46002700BF94F83C00012802D12E
:101B70000220BDE8F081012084F83C0000BF022073
:101B800084F83D002068866826F0770626F47F46B4
:101B9000206886602868502833D00CDC202850D07C
:101BA00004DC00284BD0102851D149E0302849D01E
:101BB00040284CD139E060282DD0702807D0B0F5EE
:101BC000805F03D0B0F5005F41D10DE041E0D5E981
:101BD00002136A68206800F061FD2068866846F09C
:101BE00077062068866034E0D5E902136A682068C9
:101BF00000F054FD2068806840F4804021688860CF
:101C000027E0EA686968206800F05CFD50212068E0
:101C100000F04FFD1DE0EA686968206800F065FD8E
:101C20006021206800F045FD13E0EA6869682068DB
:101C300000F048FD4021206800F03BFD09E000BFB6
:101C400000BF00BF2968206800F033FD01E00127D4
:101C500000BF00BF012084F83D0000BF002084F8D1
:101C60003C0000BF384684E7704770B504462068E2
:101C7000C5682068066906F00200022819D105F03F
:101C80000200022815D1401F216808610120207739
:101C90002068806900F0030018B12046FFF7E4FFD8
:101CA00005E0204600F097F8204600F095F8002067
:101CB000207706F00400042819D105F00400042858
:101CC00015D1C0432168086102202077206880690F
:101CD00000F4407018B12046FFF7C6FF05E020462B
:101CE00000F079F8204600F077F80020207706F021
:101CF0000800082819D105F00800082815D1C043AC
:101D000021680861042020772068C06900F0030082
:101D100018B12046FFF7A8FF05E0204600F05BF869
:101D2000204600F059F80020207706F01000102817
:101D300019D105F01000102815D1C04321680861A1
:101D4000082020772068C06900F4407018B1204650
:101D5000FFF78AFF05E0204600F03DF8204600F03E
:101D60003BF80020207706F0010048B105F00100A3
:101D700030B16FF0010021680861204600F02EF8B4
:101D800006F08000802809D105F08000802805D168
:101D9000C043216808612046FFF70CFE06F04000B2
:101DA000402809D105F04000402805D1C0432168F2
:101DB0000861204600F05EF806F02000202809D1D6
:101DC00005F02000202805D1C04321680861204685
:101DD000FFF7F1FD70BD7047704700002DE9F04737
:101DE0008146D9F80000B0F1804F36D101F09CF85F
:101DF0001B4800686421B0FBF1F201FB1200D8B966
:101E0000002417E0174800EBC4000022164BD0E96D
:101E10000071384601F0F6F9054601F0E7F8134A7B
:101E200002EBC40203C200210E4A02EBC40211609D
:101E30005160641C032CE5DB09480068401C08491C
:101E400008600846006840F2E931884205D1002068
:101E500003490860012006490860BDE8F0870000DA
:101E60000000002070000020000059408800002081
:101E70000400002070477047704700002DE9F84FBC
:101E80000446206805682068C668206847694FF0E6
:101E90000009CA4605F00F09B9F1000F0AD105F093
:101EA000200038B106F0200020B1204600F081FC6F
:101EB000BDE8F88FB9F1000F7BD007F0010018B929
:101EC00006F49070002874D005F0010030B106F4DB
:101ED000807018B1606C40F00100606405F004008F
:101EE00030B107F0010018B1606C40F0020060648E
:101EF00005F0020030B107F0010018B1606C40F04D
:101F00000400606405F0080048B106F0200010B934
:101F100007F0010018B1606C40F008006064606C6C
:101F2000002845D005F0200028B106F0200010B1AF
:101F3000204600F03EFC20684069C0F3801A606CC7
:101F400000F0080010B9BAF1000F2CD0204600F0C4
:101F5000EAFB2068406900F0400000B300BF00BF0A
:101F60002168143151E8001F21F04000216814312C
:101F700041E80002002AF3D100BFE06B50B177487E
:101F8000E16B4863E06BFEF7C1FD88B1E06B416B2C
:101F900088470DE02046FFF76FFF09E009E0204683
:101FA000FFF76AFF04E02046FFF766FF0020606449
:101FB0007EE7206B012877D105F01000002873D050
:101FC00006F010000028FAD000BF00200090206822
:101FD0000068009020684068009000BF00BF206843
:101FE000406900F0400000285FD0E06B0068406866
:101FF0001FFA80F8B8F1000F55D0A08D404552DD92
:10200000A4F82E80E06B8069202843D000BF00BF79
:1020100021680C3151E8001F21F4807021680C31D7
:1020200041E80002002AF3D100BF00BF00BF2168D1
:10203000143151E8001F21F001002168143141E8FA
:102040000002002AF3D100BF00BF00BF2168143195
:1020500051E8001F21F040002168143141E80002DE
:10206000002AF3D100BF202084F842000020206322
:1020700000BF00BF21680C3151E8001F21F01000A3
:1020800021680C3141E80002002AF3D100BFE06B67
:10209000FEF710FD02206063A08DE28D801A81B2F0
:1020A0002046FFF7E8FE03E742E0A08DE18D401AED
:1020B0001FFA80F8E08DD0B3B8F1000F37D000BF21
:1020C00000BF21680C3151E8001F21F49070216895
:1020D0000C3141E80002002AF3D100BF00BF00BF6D
:1020E0002168143151E8001F21F0010021681431EA
:1020F00041E80002002AF3D100BF202084F842000A
:102100000020206300BF00BF21680C3151E8001F90
:1021100021F0100021680C3141E80002002AF3D1BF
:1021200000BF0220606341462046FFF7A4FEBFE6E1
:1021300005F0800030B106F0800018B1204600F0B4
:1021400035FCB5E605F0400030B106F0400018B1AE
:10215000204600F01EFBABE600BFA9E613270008EF
:1021600010B504460CB9012010BDA06900B100E013
:1021700000BF94F8410028B9002084F840002046B0
:1021800000F02AF8242084F841002068C06820F478
:1021900000502168C860204600F08AFB2068006972
:1021A00020F49040216808612068406920F02A00EE
:1021B000216848612068C06840F400502168C86008
:1021C00000206064202084F8410084F84200002050
:1021D000606300BFC8E7000010B586B00446002069
:1021E00002900390049005901E492068884236D1E1
:1021F00000BF1D48806940F480401B498861084643
:10220000806900F48040019000BF00BF00BF084615
:10221000806940F0040088610846806900F004008D
:10222000019000BF00BF48150290022003900320D8
:10223000059002A90D48FEF7C1FC4FF480600290A2
:1022400000200390049002A90848FEF7B7FC002282
:1022500011462520FEF7D6FE2520FEF7C3FE06B068
:1022600010BD00000038014000100240000801408D
:1022700070472DE9F84F04460E46174699464FF031
:10228000000A94F84100202850D106B117B9012066
:10229000BDE8F88F00206064212084F84100FEF73B
:1022A0002BFE8246A784E784A068B0F5805F04D146
:1022B000206910B90025B04602E035464FF000080D
:1022C0001EE05346002280212046CDF8009000F009
:1022D0009DFB20B1202084F841000320D8E745B9B8
:1022E000B8F80000C0F308002168486008F102084F
:1022F00003E02878216848606D1CE08C401EE08473
:10230000E08C0028DDD15346002240212046CDF844
:10231000009000F07BFB20B1202084F841000320D6
:10232000B6E7202084F841000020B1E70220AFE7A3
:10233000704700BFFEE700000EB50020009001903E
:1023400002902548254908608115244881600021B4
:1023500001730121017581614FF46021C161002089
:102360001E49486004211D480161FEF771F908B15A
:10237000FEF717F803200090012001900020029042
:1023800069461648FEF7B0F808B1FEF70AF80420CF
:1023900000900220019069461048FEF7A5F808B1A8
:1023A000FDF7FFFF052000900320019069460B48D0
:1023B000FEF79AF808B1FDF7F4FF0620009004201C
:1023C000019069460548FEF78FF808B1FDF7E9FF6F
:1023D0000248FDF7FBFF0EBD00240140D80000209D
:1023E00000B585B00020019002900390049000BFDA
:1023F0002848806940F010002649886108468069B5
:1024000000F01000009000BF00BF00BF08468069C8
:1024100040F0200088610846806900F020000090AC
:1024200000BF00BF00BF0846806940F0040088611B
:102430000846806900F00400009000BF00BF00BFA4
:102440000846806940F0080088610846806900F00D
:102450000800009000BF00BF012202210E48FEF7D5
:1024600045FD02200190012002900390022004907B
:1024700001A90948FEF7A2FB4FF44050019000204B
:1024800002900220039001A90448FEF797FB05B0D3
:1024900000BD00000010024000080140000C014097
:1024A00000B587B00020039004900590069001903D
:1024B00002904FF080401449086040F2CF204860FD
:1024C0000021114881606321C160002101618161A7
:1024D000FFF7B4FA08B1FDF764FF4FF480500390A2
:1024E00003A90948FFF73AFB08B1FDF75AFF00209E
:1024F0000190029001A90448FFF75EFA08B1FDF7C8
:1025000050FF07B000BD00000801002010B50B48C7
:102510000B4908604FF4165048600021084881605C
:10252000C16001610C21416100218161C161FFF73E
:1025300017FE08B1FDF735FF10BD0000003801405F
:102540005003002000BFFEE700BFFEE77047000019
:1025500008B508490968C9084FF47A72B1FBF2F16D
:102560004143009100BF00BF00994A1E009200291C
:10257000F9D108BD54000020704710B5FEF7C2FC29
:1025800010BD00B593B0282109A8FDF71DFE142148
:1025900004A8FDF719FE002000900190029003901E
:1025A0000120099000040A9000200B9001200D905A
:1025B00002201090C10311914FF4E011129109A86B
:1025C000FEF7ACFF08B1FDF7ECFE0F2004900220EF
:1025D0000590002006904FF480600790002008903E
:1025E000022104A8FEF776FE08B1FDF7DAFE02200C
:1025F0000090800302906846FEF7D4FD08B1FDF715
:10260000D0FE13B000BD704710B50248FFF72DFB98
:1026100010BD00000801002010B502681C4B984254
:1026200008D0B0F1804F05D01A4B984202D01A4B17
:10263000984203D122F070024B681A43144B98421F
:1026400008D0B0F1804F05D0124B984202D0124B07
:10265000984203D122F44072CB681A4322F08003DF
:102660004C6943EA040202608B68C3620B688362B0
:10267000074B984201D10B6903630123436103694E
:1026800003F001031BB1036923F00103036110BDD3
:10269000002C0140000400400008004030B50C460A
:1026A000816821F47F4142EA032525432943816063
:1026B00030BD0A46816821F0700142F007031943DA
:1026C0008160704730B50B461446026A056A25F0F2
:1026D00001050562816921F0F00141EA041122F04F
:1026E0000A021A438161026230BD30B50B461446BE
:1026F000026A056A25F010050562816921F47041BE
:1027000041EA043122F0A00242EA0312816102622E
:1027100030BD70B505466C6A0020E085E084204637
:10272000FFF7AAFB70BD00BF00BF02680C3252E881
:10273000002F22F4907102680C3242E80013002B43
:10274000F3D100BF00BF00BF0268143252E8002F6F
:1027500022F001010268143242E80013002BF3D189
:1027600000BF016B01290ED100BF00BF02680C320F
:1027700052E8002F22F0100102680C3242E80013E8
:10278000002BF3D100BF202180F84210002101630B
:10279000704710B504462068C06820F040002168EA
:1027A000C860202084F841002046FFF7C1FD0020CA
:1027B00010BDF8B5044694F84200222875D1A068EF
:1027C000B0F5805F0CD1206950B90025A66A206859
:1027D0004068C0F308003080A06A801CA06215E049
:1027E000A56A0026A068B0F5805F03D0A06828B96C
:1027F000206918B920684068287004E020684068A3
:1028000000F07F002870A06A401CA062E08D401E8E
:1028100080B2E085002846D12068C06820F0200002
:102820002168C8602068C06820F480702168C86092
:102830002068406920F0010021684861202084F868
:10284000420000206063206B012826D10020206315
:1028500000BF00BF21680C3151E8001F21F01000BB
:1028600021680C3141E80002002AF3D100BF206842
:10287000006800F0100010280AD100BF002000906E
:1028800020680068009020684068009000BF00BF8A
:10289000A18D2046FFF7EFFA02E02046FFF7E8FCA3
:1028A0000020F8BD01E00020FBE70220F9E700006E
:1028B00070B504462168096921F44051E26811436A
:1028C000226811612269A1681143626941EA020527
:1028D0002168C96841F20C62914329432268D160A2
:1028E0002168496921F44071A2691143226851614C
:1028F0002D4A2168914202D1FEF7C8FD01E0FEF7A2
:10290000B5FD00EBC00101EB001162689200B1FB64
:10291000F2F100EBC00202EB001263689B00B2FB15
:10292000F3F26423B2FBF3F202EBC20303EB0212F5
:10293000A1EB8201322202EB01116422B1FBF2F120
:1029400001F0F00100EBC00202EB001263689B0093
:10295000B2FBF3F26423B2FBF3F201EB021200EBE1
:10296000C00101EB001163689B00B1FBF3F100EBC8
:10297000C00303EB00136668B600B3FBF6F36426EE
:10298000B3FBF6F303EBC30606EB0313A1EB8301E2
:10299000322303EB01116423B1FBF3F101F00F01CA
:1029A00011442268916070BD00380140014691F8E1
:1029B0004100212828D18868B0F5805F0BD10869D3
:1029C00048B90A6A1088C0F308000B685860086AA2
:1029D000801C086205E00B6A581C086218780B68B6
:1029E0005860C88C401E80B2C88458B90868C06856
:1029F00020F080000B68D8600868C06840F0400094
:102A00000B68D860002070470220FCE72DE9F843EE
:102A100004460D4617469846089E31E0701C70B378
:102A2000FEF76AFAA0EB0800B04200D816B90320FE
:102A3000BDE8F8832068C06800F00400F8B1802D7C
:102A40001ED0402D1CD020680068C0F3C000B0B17B
:102A500000BF002000902068006800902068406857
:102A6000009000BF00BF2046FFF75DFE08206064B5
:102A700000BF002084F8400000BF0120D8E7FFE736
:102A8000206800682840A84201D1012000E0002011
:102A9000B842C3D00020CBE710B50248FFF7EEF9EB
:102AA00010BD00005003002000BFFEE70248006890
:102AB000C0F30220704700000CED00E010B50028C4
:102AC00004DB0A07130E054A135406E00A07140E26
:102AD000034A00F00F031B1FD45410BD00E400E0B4
:102AE00018ED00E070B504460B46194D6D68184EA0
:102AF000B668AD1B05EBC5056800154D2D68144E75
:102B0000B668AD1B05EBC50569004FF4B47590FBC5
:102B1000F5F605FB160091FBF5F605FB16110028EE
:102B200001DA00F5B470002901DA01F5B47100256D
:102B30002580814201DC022500E001251D801D88E1
:102B4000012D01D1022500E00125158070BD000096
:102B5000640000202DE9FF4704460D4616461F4637
:102B6000DDE90C89FDF720FC114B9A68596818685B
:102B700000F028F80F4908600846006800EB800064
:102B8000400008600C4800F0C7F92B46224609486F
:102B90008DE8C0030168084800F08CF94FF0FF335E
:102BA0001C2205490548FFF764FBBDE8FF870000CC
:102BB000A000002018000020AC00002050030020DE
:102BC00000207047F0B503460C46002040EA04069A
:102BD00043EA00075640304600F05CF905463846A7
:102BE00000F058F945400348B5FBF0F100FB1150E7
:102BF000F0BD000040420F0086B0FEF78FF9FFF7EE
:102C0000C0FCFFF7EDFBFFF797FBFFF749FCFFF771
:102C10007DFC8D48FEF766FF14E18C4800680128B2
:102C2000FAD141038A48FEF759F908B1012000E0C2
:102C300000200028F0D04FF480518548FEF74EF96F
:102C400008B1012000E000200028E5D081484FF0C5
:102C50006632814BD0E90461304600F091FC824637
:102C600000227E4B00F08CFC80464FF066327C4B9D
:102C700000F0C8FA044600F0DFF97A4908607548A8
:102C80004FF06632744BD0E90261304600F078FCB8
:102C900080460022714B00F073FC82464FF0663292
:102CA0006F4B00F0AFFA044600F0C6F96E490860B9
:102CB00068484FF06632684BD0E90061304600F05A
:102CC0005FFC80460022654B00F05AFC04464FF042
:102CD0006632634B00F096FA824600F0ADF9634924
:102CE0000860634801685F48006800F033FF0746EA
:102CF00060480168384600F02DFF06465E480168CE
:102D0000304600F027FF05465C480168284600F081
:102D100021FF044600F002FF594908605448016849
:102D20005148006800F016FF0646524801683046D8
:102D300000F010FF054653480168284600F00AFFDE
:102D4000044600F0EBFE50490860494801684748D6
:102D5000006800F0FFFE064646480168304600F075
:102D6000F9FE054644480168284600F0F3FE044693
:102D700000F0D4FE4549086003AA04A905A8FFF79E
:102D8000B1FE3F48006800F095FB04460022404B2E
:102D900000F0BAFB13D33C48006800F08BFB0446FC
:102DA00000223B4B00F0B0FB09D33848006800F02C
:102DB00081FB04460022364B00F0A6FB21D21B20EB
:102DC0000590049003902E4800682F490968084434
:102DD0002E4909680844322830DD2C4800682A4909
:102DE0000968CDE90010BDF80C30DAB2BDF810303A
:102DF000D9B2BDF81430D8B2214B1B68FFF7AAFE38
:102E00001CE01F4800682049096808441F490968F8
:102E10000844322812DD1D4800681B490968CDE9C5
:102E20000010BDF80C30DAB2BDF81030D9B2BDF8E0
:102E30001430D8B2124B1B68FFF78CFE00200349F8
:102E4000086000BFE9E6000008010020040000203F
:102E5000000C01408800002066660A4000408F4058
:102E60006666C4401C0000202000002024000020D2
:102E700034000020380000203C00002044000020E6
:102E800028000020400000202C00002030000020FE
:102E90000000594080EA10400449484380EA50301D
:102EA0000349484380EA1040704700006BCAEB8535
:102EB00035AEB2C22DE9F04304460D4607AE96E8A2
:102EC000C003FFF77DFEA060124820606560E282CB
:102ED000238366832782A4F81280A4F8149000212B
:102EE00060684140A068014420680144E08AB4F869
:102EF00018C06044B4F81AC060440144208AB4F891
:102F000012C06044B4F814C060440144E160BDE8FC
:102F1000F08300002380279510B504461C2120462D
:102F2000FDF752F910BD00002DE9F04100240EE03C
:102F30002948FDF727FD64212748FDF763FC28B9E0
:102F40002548FDF781FB254941F82400641C042C29
:102F5000EEDB00243CE0214850F824001F49C968FA
:102F6000884207D21E4850F82400401C1C4941F8F2
:102F7000240014E0194850F824001849C968884210
:102F80000DD3174850F82400042808D9FDF7B4FFE2
:102F9000144941F824000020114941F824000F4948
:102FA00051F824100D4AD268891A01FB01F000F093
:102FB00098FA05460C4800EBC400D0E900733A4685
:102FC000284600F06BF8084A02EBC40203C2641CF6
:102FD000032CC0DBBDE8F081D8000020C800002031
:102FE0005800002064000020700000202DE9F0410E
:102FF00006460F4600F0C2FB041E0D4618BF012016
:10300000284320F00040C0F17F6000F1E040C00F95
:103010000ED0301C18BF0120384320F00040C0F112
:103020007F6000F1E040C00F04BF0120FDF7FBF816
:1030300020462946BDE8F08121F00042A2F160520D
:10304000B2F5801F01F0004328BFD2F17F6C0BD98D
:103050005FEA001C43EAC20242EB507018BF70479F
:1030600028BF20F001007047B2F5801FBCBF184692
:1030700070474FEA410C1CF5001F02D2084600F0D1
:1030800030BE70B500F026FB00000089FFF7F6BFE8
:103090004FF00040A0F580007047000010B591EAA5
:1030A000030F48BF83F0004300F15684841A71EB8C
:1030B000030C05D2121943EB0C03001B61EB0C014E
:1030C000DFF824E14FEA1154A4EB135C1EEA430F2E
:1030D00018BF9EEA445F73D023EA0E03DCF1200E92
:1030E00021EA045143F4801332D322FA0CFE10EB90
:1030F0000E0023FA0CFE41EB0E01CCF1200E03FA78
:103100000EFE10EB0E0051F10001B1F5801FCCF165
:10311000200E32D201EB045112FA0EF2BDE810403B
:1031200058BF7047401C38BF5FEA420218BF704763
:10313000002814BF20F0010041F100014FEA4103D3
:1031400013F5001F38BF7047A1F1C04100F010BB5C
:10315000012A43EB0302ACF1200CDCF11F0E32BF5D
:103160004FF0000E23FA0CF310EB030041EB045177
:10317000B4EB115FD0D0A1EB045101F580114908E7
:103180005FEA300001EB04510ED350F1000038BF6C
:1031900012FA0EFE08D1BDE81040C9E7401C38BF46
:1031A0005FEA4202CAD1C3E7BDE810404FEA4103DB
:1031B00013F5001F38BF7047A1F1C04100F0D8BA25
:1031C0009EEA445F08D011EA5E0FBDE8104004BFDC
:1031D00001F0004100207047BDE8104070B500F0DC
:1031E00079FA00BF64FBBE3E0000E0FF491058BF03
:1031F000C1F140415B1058BFC3F140438B42EFF334
:10320000008070472DE9C04130B4DFF8A0C23CEA2D
:10321000111418BF3CEA131400F0EC8081EA030596
:103220001CEA111444EAD57418BF1CEA131500F007
:10323000C780A4EB05044FF0004545EAC12145EAEB
:10324000C32341EA505143EA525304F17F74994237
:1032500004F500344FEAC0204FEAC22208BF904272
:1032600000F09C804FEA13650FF24016765D4FEA3E
:10327000134506FB05F7C7F1807706FB07F74FEA12
:10328000D737A7FB03687642C8F58038A7FB06CE80
:1032900038BFA8F1010807FB08E64FF0000EA6FBB7
:1032A000028CE6FB03CEDCF1000CCEF1004E38BF01
:1032B000AEF1010EA6FB0C584FF000074FF00005D1
:1032C000E6FB0E87A1FB08C6A0FB07CE16EB0E0699
:1032D00045F10005E1FB076515F1E04E7EBFA4F561
:1032E00080345FEA46066D4116F1800745F100051E
:1032F0004FEA17274FEA066647EA0567A6F1DE465A
:10330000B6F1805F4FEA15251FD9384624F0010C2D
:1033100005EBC471BCF1FE6F01EB0C1102D8F0BCDF
:10332000BDE8008124425CBF01F5801E9EEAC47F97
:1033300002D4F0BCBDE80081244238D4F0BCA1F135
:10334000C041BDE8004100F013BA4FEAD22242EA80
:1033500043524FEAD323A7FB02864FEAD02040EA2C
:10336000415007FB03661EEA0E0F4FEAD12105FB11
:10337000026658BFA6EB0056B6EB00564FEA520E57
:103380004EEAC37E18EB0E0E56EB530EBDD518EB6E
:1033900002085E417F1C55F10005B6E74FF4801529
:1033A0004FF000074FF000064FF00008ADE7F0BC0B
:1033B0004FF0000001F1C04101F00041BDE8008183
:1033C00011EA0C1F0CEA131500D00CE013EA0C1FD5
:1033D00000F025804FF00000F0BC81EA030101F00D
:1033E0000041BDE80081F0BCBDE8004181EA030175
:1033F00000F0BEB9F0BCBDE8004170B500F06AF95C
:10340000097EFC3E00F007B881EA03014FF000009E
:1034100001F00041704781EA030100F0A9B9F0BC56
:10342000BDE800414FF0000021497047FFFDFBF966
:10343000F7F5F4F2F0EEEDEBE9E8E6E4E3E1E0DEE7
:10344000DDDBDAD8D7D5D4D3D1D0CFCDCCCBCAC859
:10345000C7C6C5C4C2C1C0BFBEBDBCBBBAB9B8B780
:10346000B6B5B4B3B2B1B0AFAEADACABAAA9A8A873
:10347000A7A6A5A4A3A3A2A1A09F9F9E9D9C9C9B41
:103480009A999998979796959594939392919190EC
:103490008F8F8E8E8D8C8C8B8B8A8989888887877D
:1034A0008685858484838382828181800000FF07F2
:1034B0000000F87F10F0004248BF4042B0FA80F3AD
:1034C00010FA03F10AD0C3F11D0303F580634FEA3C
:1034D000415002EB035202EBD12170474FF0000044
:1034E0007047B0FA80F310FA03F10AD0C3F11D035C
:1034F00003F580634FEA41504FEA035202EBD121BA
:1035000070474FF00000704751EA030C17D41CF5C8
:10351000801F58BFBCF5801F00F10680994218BF7C
:10352000704708BF9042704707D711F5801F58BFFA
:1035300013F5801F19D499427047894270471CF5D2
:10354000801F08D5BCF5801FF7D58B4218BF704788
:1035500008BF824270474FF4001C1CEB410F38BF7C
:103560001CEB430F01D28B42704770B500F0B2F8EC
:10357000922449004FF000514FF08053FFF736BEC0
:10358000DFF848C170B51CEA111E1EBF1CEA1315F6
:103590009EEA0C0F95EA0C0F00F06F8081EA03049D
:1035A00023EA4C134EEAD47E21EA4C1141F48011F7
:1035B00043F48013AE44A1FB024CA0FB0365AEF1C3
:1035C0007F7E361955EB0C05A1FB034C4CF1000333
:1035D000A0FB021C16EB0C06654153F100030942E7
:1035E00018BF46F0010613F4007F0BD14FEA0331F8
:1035F0004FEA0530340341EA155140EA16506FF0A6
:1036000003020AE04FEAC3214FEAC520F40241EA6F
:10361000555140EA56506FF0020202EB2E4201EB88
:10362000025585EACE710AD05FEA440C18BF24F037
:10363000004450F1000041F1000120EAD47040F252
:10364000FE7C624500D270BDA84214BF4FF080449A
:103650004FF04044002E08BF0024BEF1806FA8BF89
:10366000A1F1C041BDE8704080F282804FF00000BF
:1036700001F1C04101F0004170479EEA0C0F0CEAD5
:10368000131518BF95EA0C0F06D04FF0000081EA21
:10369000030E0EF0004170BD00F01CF88900013EE1
:1036A00000F007B800F009B84FEA430C5FEA5C5C31
:1036B00008D081EA030100F05BB84FEA410C5FEAF1
:1036C0005C5CF6D14FF00000014970470000FF0735
:1036D0000000F87F0EF1020E2EF0030E5EF8046B70
:1036E000364205D4012A43EB030515F5001F12D815
:1036F000012841EB010C1CF5001F0CD80ED14FEA3C
:10370000D17C15F5001F0CEB4C0C0CF1020C08BF22
:103710004CEBD37C04E04FF0080C01E04FEAD37C83
:103720000CEB4C0526FA05F606F00706B6F1040C7C
:1037300006D20EEB860CBDE870404CF0010C6047E1
:10374000DFE80CF0090B02024FF000414FF00000DF
:10375000A1F5002170BD19461046012851EB010466
:1037600018BFD4F5001484BF002001F0004170BDE3
:103770000808A0F500114FEA310170472DE9F0412A
:1037800001F5801CBCF5001FC0F2C3804FEA115C3C
:1037900021EA0C510CF1FD0C41F480115FEA5C0C44
:1037A0000CF5C07C01D3400049413DA4890241EAA7
:1037B000905187028E0E0A0CA45D04FB04F602FBF6
:1037C00006F6C6F14046A4FB0662F60D46EA42261E
:1037D00006FB06F4A4FB01235242C3F1404338BF69
:1037E0005B1EA6FB02420024E6FB0324D20B42EA46
:1037F0004446A6FB0623A1FB02E2A3FB07E4A418B0
:103800004FF0000252F10002E3FB01426442C2F1B8
:10381000404E38BFAEF1010EA6FB04234FF000026C
:10382000E6FB0E32A2FB03464FF00004B61954F13A
:103830000004E2FB0264A1FB06E6A4FB07E816EB2A
:1038400008064FF0000858F10008E4FB01687642D2
:10385000C8F1405838BFA8F10108A2FB06E4A3FB59
:1038600008E52D194FF0000454F10004E2FB085460
:10387000A1FB05E6A7FB04E818EB06084FF00006DD
:1038800056F10006E1FB048618F1200556F100060A
:10389000A809A8F11B08B10908F03F08B8F10A0F00
:1038A00040EA86601CD901EB0C51BDE8F08100BFF5
:1038B000FCF5EEE8E2DDD8D3CFCBC7C3C0BDB9B6C7
:1038C000B4B1AEACA9A7A5A3A19F9D9B9A989695CC
:1038D0009392908F8D8C8B89888786858483828153
:1038E000A0FB006800FB01F208EB4208B8EB872858
:1038F00007D5341858EB0104D5D5401C51F100010F
:10390000D1E7341A78EB0104CDD4401E71F10001E7
:10391000C9E75FEA4C0C5FEA9C5C0DD105D34FF020
:10392000000001F00041BDE8F081BDE8F04170B554
:10393000FFF7D0FE6DDBFFBEBDE8F0414FF00000A9
:10394000004970470000F87F10B591EA030F48BFA7
:1039500083F000433FF5AAAB841A71EB030C07D246
:1039600012198CF0004C43EB0C03001B61EB0C01B3
:10397000DFF8A4E14FEA1154A4EB135C1EEA430FF5
:1039800018BF9EEA445F00F0B08023EA6E03524203
:1039900021EA0451C3EB6E0338BF5B1EDCF1200E3D
:1039A00025D322FA0CFE10EB0E0043FA0CFE41EB7D
:1039B0000E01CCF1200E03FA0EFE10EB0E0051F1B9
:1039C0000001CCF1200E29D412FA0EF201EB0451C1
:1039D000BDE8104058BF7047401C1CBFB2F1004FFB
:1039E000704700280CBF491C20F00100704712EB03
:1039F000020E43EB030218BF4FF0010E4EEA4202E3
:103A0000ACF1200CDCF11E0E54D943FA0CFE10EB85
:103A10000E0051F1FF31CCF11E0ED5D50EF1010E85
:103A200012FA0EFE404141EB010101EB445C5FEAFA
:103A30005C5C10D910EBDE7001EB045138BFBEF1B5
:103A4000004FBDE8104018BF704700280CBF491C4C
:103A500020F00100704730D24FEAD42C11F500114C
:103A600024F400641BD0B1FA81F20B3AA41AA41E0C
:103A7000D2F12003914030FA03F31943904001EB57
:103A8000CC71002C01EB0451BDE81040A8BF704779
:103A900001F1C0414FF0000001F000417047B0FA61
:103AA00080F310FA03F100D110BDE41A173C480569
:103AB000C90AE4E701EB045110BD491001EB0451C0
:103AC000BDE810404FEA300002E04FF000017047BF
:103AD0004A0008BF0042F8D0B2F5001F28BF704767
:103AE00001F000414FF0000070479EEA445F07D0AC
:103AF00011EA5E0FBDE8104004BF002100207047AE
:103B0000BDE8104070B5FFF7E5FD00BF40DFF63EB1
:103B100083F00041104670470000E0FF41000B0EAB
:103B2000D3F19E0208D950F400034FEA032323FA8D
:103B300002F048BF4042704710B500F08CF800BF5B
:103B400049922480002070476FF0004282EA2000F2
:103B5000704700004FF47F0C1CEAD0121EBF1CEA15
:103B6000D11392EA0C0F93EA0C0F00F0478090EA11
:103B7000010F48BF42F480724FF0004C4CEA002025
:103B80004CEA012102EB0302A0FB0113A2F50002A3
:103B9000002918BF43F001035B0028BF4FEA33033D
:103BA00042EB22425FEA132C4CEBC2502EBFBCEB1F
:103BB000436FB2F57C0F70474FEA036CBCF1004FC6
:103BC00008BF20F00100B2F57C0F38BF70470BD55D
:103BD00082F0FF0212F5803FC8BF704700F1C0407D
:103BE000D8BF00F00040704700F5000C5FEA4C0CB5
:103BF00048BF7047B0F1C04000F073B890EA010FC1
:103C00000CEAD11348BF42F48072624538BF634565
:103C100004D280EA010000F00040704710B500F0C7
:103C20001AF800BF8900013E00F007B800F009B89B
:103C30005FEA410C5FEA1C6C08D080EA010000F0EA
:103C400050B85FEA400C5FEA1C6CF6D14FF00040C0
:103C5000A0F5800070470EF1020E2EF0030E5EF804
:103C6000044B244204D44FEA4102B2F17F4F11D8F1
:103C70004FEA4003B3F17F4F0CD80ED14FEAD07C0E
:103C8000B2F17F4F0CEB4C0C0CF1020C08BF4CEB6B
:103C9000D17C04E04FF0080C01E04FEAD17C0CEB42
:103CA0004C0324FA03F404F00704B4F1040C06D224
:103CB0000EEB840CBDE810404CF0010C6047DFE8CF
:103CC0000CF0070802024FF00040A0F5800010BD84
:103CD0000846420018BFD2F1807288BF00F0004051
:103CE00010BDFF2141EAD050C00570470203040512
:103CF000060708090A0B0C0D0E0F10100102020333
:103D00000405060708090A0B0C0D0E0F101001021E
:103D1000000000000000000001020304060708097B
:103D200000000000010203047463703A2F2F313841
:103D3000322E3235342E3231312E32383A31383853
:103D4000330000006D7174745F6D756C74696D651E
:103D50007465725F7465726D696E616C000000005D
:103D60002F667A752F6D756C74696D657465720058
:103D7000903D0008000000205800000028010008C5
:103D8000E83D000858000020A00900004401000898
:103D9000000000000000000000000000283D0008B6
:103DA000443D0008603D00080000000000000000E5
:103DB0000000000000000000000000000000000003
:103DC00000000000EB43234188C1FF3E8687803F0F
:103DD000C383803FAAA4803F0000000010000000C1
:083DE0000100000000127A004E
:04000005080000ED02
:00000001FF
